:020000040000FA
:10000000900400206D0200007102000073020000E5
:100010007502000077020000790200000000000075
:100020000000000000000000000000007B02000053
:100030007D020000000000007F020000810200003D
:10004000830200008302000083020000830200009C
:10005000830200008302000083020000830200008C
:10006000830200008302000083020000830200007C
:10007000830200008302000083020000830200006C
:10008000830200008302000083020000830200005C
:10009000830200008302000083020000830200004C
:1000A000830200008302000083020000830200003C
:1000B0008302000083020000390500008302000073
:1000C000830200008302000083020000830200001C
:1000D000830200008302000083020000830200000C
:1000E00083020000830200008302000083020000FC
:1000F00083020000830200008302000083020000EC
:1001000083020000830200008302000083020000DB
:1001100083020000830200008302000083020000CB
:1001200083020000830200008302000083020000BB
:1001300083020000830200008302000083020000AB
:1001400000000000000000000000000000000000AF
:10015000830200008302000083020000830200008B
:10016000000000000000000000000000000000008F
:10017000000000000000000000000000000000007F
:10018000000000000000000000000000000000006F
:10019000000000000000000000000000000000005F
:1001A000000000000000000000000000000000004F
:1001B000830200008302000083020000830200002B
:1001C000830200008302000083020000830200001B
:1001D000830200008302000083020000830200000B
:1001E00083020000830200008302000083020000FB
:1001F00083020000830200008302000083020000EB
:10020000830200008302000083020000000000005F
:1002100083020000830200008302000083020000CA
:1002200083020000830200008302000083020000BA
:1002300083020000830200008302000083020000AA
:10024000830200008302000083020000830200009A
:10025000830200008302000083020000830200008A
:1002600083020000830200008302000000F00AB84D
:10027000FEE7FEE7FEE7FEE7FEE7FEE7FEE7FEE756
:10028000FEE7FEE700F002F800F050F814A696E84A
:10029000000CB244B344DA4501D100F047F8BAE8A3
:1002A0000F000FA696E83000A5EB040504EB060747
:1002B000AAEB0704A7F101074FEA15154FEA34141A
:1002C000A4F10104AC4201D300F030F813F0010FA7
:1002D00018BFFB1A43F0010300F001F8DBE71847F1
:1002E000180E0000380E0000103A24BF78C878C1FC
:1002F000FAD8520724BF30C830C144BF04680C602C
:1003000070470000704700000023002400250026ED
:10031000103A28BF78C1FBD8520728BF30C148BF68
:100320000B6070471FB51FBD10B510BD00F029F858
:100330001146FFF7F7FF00F011FC00F047F803B497
:10034000FFF7F2FF03BC00F04FF8000072B67047F1
:1003500062B67047EFF3108072B6704780F3108872
:10036000704730BF704702480249014A024B70474C
:1003700090000020900400209000002070477047FB
:100380007047754600F02CF8AE46050069465346A6
:1003900020F00700854618B020B5FFF7E4FFBDE860
:1003A00020404FF000064FF000074FF000084FF0DC
:1003B000000BAC46ACE8C009ACE8C009ACE8C00929
:1003C000ACE8C00921F007018D46704710B504461E
:1003D000AFF300802046BDE81040FFF7B0BF00003B
:1003E000004870470800002001491820ABBEFEE716
:1003F000260002007047000083B002900191009235
:1004000049F22801C4F20301086840F004000860C2
:10041000FFE749F20400C4F2030000684007002827
:1004200001D4FFE7F5E749F28800C4F20300016850
:100430006FF31F31029A118001686FF31F31019A27
:10044000118000686FF31F300099088049F20C0199
:10045000C4F203010420086003B070474EF2386113
:10046000C4F20F01086840F002000860FFE74EF692
:100470003820C4F20F0000688007002801D4FFE78D
:10048000F5E74EF20861C4F20F01086840F0100071
:100490000860FFE74EF20860C4F20F000068C00673
:1004A000002801D4FFE7F5E744F20041C4F202015D
:1004B000086820F00700086044F22041C4F20201FD
:1004C000086840F00700086044F21C51C4F20201C1
:1004D000086820F00700086044F22851C4F20201C5
:1004E000086840F00700086049F6C471C4F20301CF
:1004F000086820F00F000860086840F001000860FC
:1005000049F20001C4F20301086820F00400086009
:1005100049F28002C4F2030240F23120106049F235
:100520008402C4F203024FF4C0601060086840F017
:10053000040008607047000080B584B047F258009E
:10054000C0F20200039000200290FFE7039820B160
:10055000FFE7039801380390F8E745F21440C4F22E
:1005600002000068C00600286DD5FFE740F20000D9
:10057000C2F200000078012851D1FFE740F20001EB
:10058000C2F200010020087040F28000C2F20000B8
:100590000078012842D1FFE740F27801C2F2000161
:1005A00000200860FFE740F27800C2F20000006817
:1005B000092817D8FFE740F27C00C2F2000040F2A1
:1005C0007E01C2F2000140F28802C2F2000200F095
:1005D0009DF9FFE740F27801C2F20001086801309E
:1005E0000860E0E740F28800C2F20000008840F2B4
:1005F0007C01C2F200010988884207DDFFE740F272
:100600008A01C2F200010120087006E040F28A016E
:10061000C2F2000100200870FFE7FFE70CE040F2A3
:100620000001C2F200010120087045F23801C4F255
:10063000020102200860FFE745F21C41C4F20201FA
:100640001020086056E040F28000C2F200000078FE
:1006500048BBFFE740F28001C2F2000101200870B0
:1006600040F20000C2F20000007801281AD1FFE732
:1006700045F23801C4F202010820086046F27930E0
:10068000C0F218000190FFE7019820B1FFE7019840
:1006900001380190F8E745F23801C4F20201022066
:1006A0000860FFE71FE040F28001C2F20001002075
:1006B000087045F23801C4F202010420086046F2D5
:1006C0007930C0F218000090FFE7009820B1FFE7F2
:1006D000009801380090F8E745F23801C4F20201B1
:1006E00002200860FFE745F21C41C4F2020101202C
:1006F0000860FFE704B080BD81B04EF27001C4F223
:100700000F010091086840F000400860086840F45C
:10071000006008604EF26002C4F20F02106820F41C
:10072000F8601060106800F5A8601060086820F09C
:100730007000086008680860086820F400500860CD
:10074000086840F0804008600868182262F39C50F6
:100750000860FFE74EF25000C4F20F000068400648
:10076000002801D4FFE7F5E74EF27001C4F20F0153
:10077000086820F40060086001B0704782B0019002
:100780000091019943F67F60411A48F29802C4F241
:10079000020211600099401A48F29C01C4F2020161
:1007A000086002B0704700004EF24061C4F20F01D1
:1007B000086840F0010008604EF20811C4F20F0111
:1007C000086840F002000860FFE74EF20810C4F22B
:1007D0000F0000688007002801D4FFE7F5E74EF21C
:1007E0006001C4F20F01086820F4F010086045F2BF
:1007F0002041C4F20001086840F03000086045F272
:100800002C51C4F20001086820F47F0008600868D9
:1008100040F48800086045F21C51C4F200010868E9
:1008200040F03000086048F28001C4F2020100206C
:10083000086048F2A003C4F202038C221A6048F256
:10084000A403C4F2020340F60C021A6048F29003BB
:10085000C4F2020343F67F621A6048F29802C4F2BF
:100860000202106048F29C02C4F2020210600868A2
:1008700040F00100086048F20801C4F20201086873
:1008800040F00C00086070474EF20811C4F20F01EE
:10089000086840F002000860FFE74EF20810C4F25A
:1008A0000F00006800F00200022801D0FFE7F4E723
:1008B00045F22851C4F20001086820F0CC0008601D
:1008C00045F22C51C4F2000108683FFA80F008603C
:1008D000086840F08840086045F20041C4F2000119
:1008E000086840F0CC00086045F22041C4F20001E5
:1008F000086820F0CC00086045F21C51C4F20001E9
:10090000086840F0CC00086070470000B0B58AB0BD
:100910000990089107920DF11A0006A90DF116022F
:10092000FFF76AFDBDF81A0040F26801C2F200014B
:100930000491098840F26E04C2F20004228800F09B
:100940008BF909990880BDF8180040F26A01C2F2DB
:1009500000010191098840F27002C2F20002009287
:10096000128800F079F908990880BDF8160040F265
:100970006C01C2F200010391098840F27202C2F2D6
:1009800000020292128800F067F9DDF800C0019BB6
:10099000029A0399DDF810E0079D2880BEF8000058
:1009A0002080BDF81A00AEF800001888ACF80000EE
:1009B000BDF81800188008881080BDF8160008805F
:1009C0000AB0B0BD81B04EF20810C4F20F00016849
:1009D00041F0200101600068009045F22051C4F20E
:1009E000020144F24B30C4F64F40086045F22451F6
:1009F000C4F20201086840F01F00086045F200419F
:100A0000C4F20201086820F011000860086840F094
:100A10000E00086045F22041C4F20201086820F08F
:100A20001100086045F21C51C4F20201086840F050
:100A30001F00086045F22C51C4F2020108686FF3F0
:100A40001300086045F22851C4F20201086820F042
:100A50001F00086045F21051C4F20201086840F01E
:100A60001100086045F20441C4F20201086820F058
:100A70001100086045F20841C4F20201086820F044
:100A80001100086045F20C41C4F20201086840F010
:100A90001100086045F21C41C4F2020111200860F7
:100AA00045F21041C4F20201086840F011000860EC
:100AB0004EF21C41CEF200010868022262F3575048
:100AC00008604EF20011CEF20001086840F080404C
:100AD000086001B07047000080B5FFF737FCFFF7F2
:100AE0000BFEFFF7D1FEFFF76DFFFFF7B7FCFFF737
:100AF0005BFEFFF72DFC80BD85B004900391029250
:100B00000498009000980399884203D2FFE7039865
:100B10000090FFE700980299884203D2FFE702980D
:100B20000090FFE700980399884204D1FFE7002076
:100B30008DF807000DE000980499884204D1FFE782
:100B400001208DF8070003E002208DF80700FFE781
:100B5000FFE79DF8070005B07047000080B584B03E
:100B6000002002900390FFF7B7FF029840F2740153
:100B7000C2F20001086040F20002C2F2000201214C
:100B8000117040F28001C2F20001087045F2380194
:100B9000C4F2020102200860FFE740F20000C2F246
:100BA00000000078002849D1FFE740F27801C2F246
:100BB000000100200860FFE740F27800C2F2000068
:100BC0000068092817D8FFE740F27C00C2F2000055
:100BD00040F27E01C2F2000140F28802C2F200023D
:100BE000FFF794FEFFE740F27801C2F200010868C7
:100BF00001300860E0E740F28000C2F200000078B7
:100C00000146019120B1FFE70198012809D011E0C8
:100C100045F23801C4F202010420086000F06CF8CB
:100C20000BE045F23801C4F202010820086000F030
:100C300073F902E0FFF795FBFFE70CE045F238019E
:100C4000C4F202010220086001210846FFF796FD68
:100C5000FFF787FBFFE7A0E782B0ADF80600ADF82D
:100C60000410ADF80220BDF80600BDF8041088425B
:100C70001FDDFFE7BDF80400BDF80210884205DD66
:100C8000FFE7BDF80400ADF8000011E0BDF8060074
:100C9000BDF80210884205DDFFE7BDF80200ADF89F
:100CA000000004E0BDF80600ADF80000FFE7FFE734
:100CB0001EE0BDF80200BDF80410884205DDFFE724
:100CC000BDF80400ADF8000011E0BDF80600BDF865
:100CD0000210884205DDFFE7BDF80600ADF8000010
:100CE00004E0BDF80200ADF80000FFE7FFE7FFE712
:100CF000BDF8000002B0704780B584B000208DF8C8
:100D00000F00FFE79DF80F00092815DCFFE740F210
:100D10007C00C2F2000040F27E01C2F2000140F20B
:100D20008802C2F20002FFF7F1FDFFE79DF80F0015
:100D300001308DF80F00E5E701210846FFF71EFDA1
:100D4000FFE740F27C00C2F2000040F27E01C2F2F6
:100D5000000140F28802C2F20002FFF7D7FDFFE770
:100D600040F27C00C2F200000188012040F6C5126A
:100D70009142029019DCFFE740F27E00C2F20000CF
:100D80000188012040F6C512914202900DDCFFE778
:100D900040F28800C2F20000018840F6C51200202F
:100DA0009142C8BF01200290FFE70298C0070028C7
:100DB000C7D1FFE740F27C00C2F20000008840F299
:100DC0007E01C2F20001098840F28802C2F20002EC
:100DD0001288FFF791FE014640F28400C2F2000043
:100DE00001600068019040B1FFE70198012837D009
:100DF000FFE70198022862D086E040F27E00C2F24E
:100E00000000008840F2347188420CDBFFE745F2B5
:100E10003031C4F20001882008604FF49651084632
:100E2000FFF7ACFC1BE040F27E00C2F2000000883D
:100E300040F23E5188420CDCFFE745F23031C4F20B
:100E40000001CC2008604FF496510846FFF796FC4D
:100E500004E001210846FFF791FCFFE7FFE758E0B7
:100E600040F27C00C2F20000008840F23A61884201
:100E70000DDBFFE745F23031C4F200018820086045
:100E80004FF448604FF49651FFF778FC16E040F2BB
:100E90007C00C2F200000088B0F5C76F0DDCFFE7F0
:100EA00045F23031C4F20001CC2008604FF41660E6
:100EB0004FF49651FFF762FCFFE7FFE729E040F2AD
:100EC0008800C2F20000008840F23A6188420DDBDF
:100ED000FFE745F23031C4F20001882008604FF48A
:100EE00096504FF44861FFF749FC0CE045F2303171
:100EF000C4F20001CC2008604FF496504FF4166104
:100F0000FFF73CFCFFE704E001210846FFF736FC51
:100F1000FFE704B080BD000080B582B000208DF8EE
:100F20000700FFE79DF80700092815DCFFE740F2FE
:100F30007C00C2F2000040F27E01C2F2000140F2E9
:100F40008802C2F20002FFF7E1FCFFE79DF807000C
:100F500001308DF80700E5E7FFE740F27C00C2F2C0
:100F6000000040F27E01C2F2000140F28802C2F2AB
:100F70000002FFF7CBFCFFE740F27C00C2F200006A
:100F80000188012040F6C5129142009019DCFFE76C
:100F900040F27E00C2F200000188012040F6C51236
:100FA000914200900DDCFFE740F28800C2F20000A1
:100FB000018840F6C51200209142C8BF0120009070
:100FC000FFE70098C0070028C7D1FFE740F27E0086
:100FD000C2F200000088B0F5996F20DBFFE740F215
:100FE0008A00C2F20000007860B9FFE745F23031B4
:100FF000C4F200018C2008604FF4FA510846FFF754
:10100000BDFB0BE045F23031C4F20001C82008609E
:101010004FF4FA510846FFF7B1FBFFE769E040F2F1
:101020008A00C2F20000007888B9FFE740F27C0035
:10103000C2F20000008840F63601884207DBFFE775
:101040004FF496504FF44861FFF798FB50E040F2A0
:101050008A00C2F200000078012811D1FFE740F2B7
:101060008800C2F20000008840F63601884207DBA3
:10107000FFE74FF448604FF49651FFF77FFB36E0EF
:1010800040F27C00C2F20000008840F2B531884294
:1010900020DCFFE740F28800C2F20000008840F246
:1010A000B531884216DCFFE740F28A00C2F2000048
:1010B000007838B9FFE74FF448604FF4FA51FFF772
:1010C0005DFB06E04FF4FA504FF44861FFF756FB22
:1010D000FFE70BE045F23031C4F20001CC2008609C
:1010E0004FF4FA510846FFF749FBFFE7FFE7FFE738
:1010F000FFE702B080BD00001811000000000020D2
:1011000004000000E80200001C110000080000209C
:0C1110008804000008030000010000003B
:040000050000026D88
:00000001FF
